{
  "transactions": [
    {
      "hash": "0x189056c504736469b246193f45e77d3d191f6c9224066559e854e9cdcd64e37f",
      "transactionType": "CALL",
      "contractName": null,
      "contractAddress": "0xc8cb365a66fb128a1c5fe756afb918b346125a33",
      "function": "executeTick(uint256,(address,(address,address,uint24,int24,address),(bool,int256,uint160),uint256,uint256,bytes)[],(bytes,bytes,bytes,uint256),bytes32)",
      "arguments": [
        "1",
        "[(0x1111111111111111111111111111111111111111, (0x069A6C16bB614Ca8b3eAb3C3eE4E5d79e4CAa86E, 0x66a4F569E12C582EfDbaDE149AA49007143c90B1, 3000, 60, 0xC8Cb365a66fb128A1C5fe756aFB918b346125a33), (true, 1000000000000000000000, 0), 1751574468, 1, 0x), (0x2222222222222222222222222222222222222222, (0x069A6C16bB614Ca8b3eAb3C3eE4E5d79e4CAa86E, 0x66a4F569E12C582EfDbaDE149AA49007143c90B1, 3000, 60, 0xC8Cb365a66fb128A1C5fe756aFB918b346125a33), (false, 1000000000000000000, 0), 1751574468, 2, 0x)]",
        "(0x0000000000000000000000000000000000000000000000000000000000000000987e8743338d381719c11b2cd457d64cad13acfe32791d640d3a349d506555a0, 0x3738489b950fab5bbbe0b1a875a959d91859a0964fa8f5ca49a1b5d31c7f37fb, 0x0000000000000000000000000000000000000000000000000000000000000001, 27)",
        "0x0000000000000000000000000000000000000000000000000000000000000000"
      ],
      "transaction": {
        "from": "0x7e718896781c0727e01d4ab5991374667ccc4dd6",
        "to": "0xc8cb365a66fb128a1c5fe756afb918b346125a33",
        "gas": "0x144fbf",
        "value": "0x0",
        "input": "0x812ae40000000000000000000000000000000000000000000000000000000000000000010000000000000000000000000000000000000000000000000000000000000080000000000000000000000000000000000000000000000000000000000000042000000000000000000000000000000000000000000000000000000000000000000000000000000000000000000000000000000000000000000000000000000002000000000000000000000000000000000000000000000000000000000000004000000000000000000000000000000000000000000000000000000000000001e00000000000000000000000001111111111111111111111111111111111111111000000000000000000000000069a6c16bb614ca8b3eab3c3ee4e5d79e4caa86e00000000000000000000000066a4f569e12c582efdbade149aa49007143c90b10000000000000000000000000000000000000000000000000000000000000bb8000000000000000000000000000000000000000000000000000000000000003c000000000000000000000000c8cb365a66fb128a1c5fe756afb918b346125a33000000000000000000000000000000000000000000000000000000000000000100000000000000000000000000000000000000000000003635c9adc5dea000000000000000000000000000000000000000000000000000000000000000000000000000000000000000000000000000000000000000000000000000006866e7c40000000000000000000000000000000000000000000000000000000000000001000000000000000000000000000000000000000000000000000000000000018000000000000000000000000000000000000000000000000000000000000000000000000000000000000000002222222222222222222222222222222222222222000000000000000000000000069a6c16bb614ca8b3eab3c3ee4e5d79e4caa86e00000000000000000000000066a4f569e12c582efdbade149aa49007143c90b10000000000000000000000000000000000000000000000000000000000000bb8000000000000000000000000000000000000000000000000000000000000003c000000000000000000000000c8cb365a66fb128a1c5fe756afb918b346125a3300000000000000000000000000000000000000000000000000000000000000000000000000000000000000000000000000000000000000000de0b6b3a76400000000000000000000000000000000000000000000000000000000000000000000000000000000000000000000000000000000000000000000000000006866e7c4000000000000000000000000000000000000000000000000000000000000000200000000000000000000000000000000000000000000000000000000000001800000000000000000000000000000000000000000000000000000000000000000000000000000000000000000000000000000000000000000000000000000008000000000000000000000000000000000000000000000000000000000000000e00000000000000000000000000000000000000000000000000000000000000120000000000000000000000000000000000000000000000000000000000000001b00000000000000000000000000000000000000000000000000000000000000400000000000000000000000000000000000000000000000000000000000000000987e8743338d381719c11b2cd457d64cad13acfe32791d640d3a349d506555a000000000000000000000000000000000000000000000000000000000000000203738489b950fab5bbbe0b1a875a959d91859a0964fa8f5ca49a1b5d31c7f37fb00000000000000000000000000000000000000000000000000000000000000200000000000000000000000000000000000000000000000000000000000000001",
        "nonce": "0xa",
        "chainId": "0xaa36a7"
      },
      "additionalContracts": [],
      "isFixedGasLimit": false
    }
  ],
  "receipts": [
    {
      "status": "0x1",
      "cumulativeGasUsed": "0x2022e6a",
      "logs": [
        {
          "address": "0xa032c297090c4064dfc082fb2da8dd864d688ddf",
          "topics": [
            "0xaa0ad3a2fed13c181807d3fa5913994cd901a2b068120ad90a5d9fb08459b497",
            "0x0000000000000000000000000000000000000000000000000000000000000001",
            "0xcac7b1261095ff8822344815a421e82c5fe3e650aa60d337a972205c0bc5e632"
          ],
          "data": "0x",
          "blockHash": "0x818b72340572150335eec07dd50c40eedc29aa03666024a01b4161148f38be9b",
          "blockNumber": "0x84872d",
          "transactionHash": "0x189056c504736469b246193f45e77d3d191f6c9224066559e854e9cdcd64e37f",
          "transactionIndex": "0x140",
          "logIndex": "0x1bc",
          "removed": false
        },
        {
          "address": "0xc8cb365a66fb128a1c5fe756afb918b346125a33",
          "topics": [
            "0x559c4d7b4368e1d7ab22a751e7e6fa547dc046473bf2eb3bf8bbac62b4e7daca",
            "0x0000000000000000000000000000000000000000000000000000000000000001",
            "0x0000000000000000000000000000000000000000000000000000000000000001",
            "0x0000000000000000000000001111111111111111111111111111111111111111"
          ],
          "data": "0x709d7e04e44b2415bfc3a9e5dc80632568214c0a3073e72378a94ab53eb6bfca00000000000000000000000000000000000000000000003635c9adc5dea00000ffffffffffffffffffffffffffffffffffffffffffffffcc801a0150d2e80000",
          "blockHash": "0x818b72340572150335eec07dd50c40eedc29aa03666024a01b4161148f38be9b",
          "blockNumber": "0x84872d",
          "transactionHash": "0x189056c504736469b246193f45e77d3d191f6c9224066559e854e9cdcd64e37f",
          "transactionIndex": "0x140",
          "logIndex": "0x1bd",
          "removed": false
        },
        {
          "address": "0x66a4f569e12c582efdbade149aa49007143c90b1",
          "topics": [
            "0xddf252ad1be2c89b69c2b068fc378daa952ba7f163c4a11628f55a4df523b3ef",
            "0x000000000000000000000000103e10e28229fcd87d2714f3e6016450b3c57c7c",
            "0x0000000000000000000000001111111111111111111111111111111111111111"
          ],
          "data": "0x0000000000000000000000000000000000000000000000337fe5feaf2d180000",
          "blockHash": "0x818b72340572150335eec07dd50c40eedc29aa03666024a01b4161148f38be9b",
          "blockNumber": "0x84872d",
          "transactionHash": "0x189056c504736469b246193f45e77d3d191f6c9224066559e854e9cdcd64e37f",
          "transactionIndex": "0x140",
          "logIndex": "0x1be",
          "removed": false
        },
        {
          "address": "0xc8cb365a66fb128a1c5fe756afb918b346125a33",
          "topics": [
            "0x559c4d7b4368e1d7ab22a751e7e6fa547dc046473bf2eb3bf8bbac62b4e7daca",
            "0x0000000000000000000000000000000000000000000000000000000000000001",
            "0x0000000000000000000000000000000000000000000000000000000000000002",
            "0x0000000000000000000000002222222222222222222222222222222222222222"
          ],
          "data": "0x301032412ea25335f4ecde35ee8b74a0bc33b47257ee678f93aedd4ae7e795580000000000000000000000000000000000000000000000000de0b6b3a7640000fffffffffffffffffffffffffffffffffffffffffffffffff2d0ec0887610000",
          "blockHash": "0x818b72340572150335eec07dd50c40eedc29aa03666024a01b4161148f38be9b",
          "blockNumber": "0x84872d",
          "transactionHash": "0x189056c504736469b246193f45e77d3d191f6c9224066559e854e9cdcd64e37f",
          "transactionIndex": "0x140",
          "logIndex": "0x1bf",
          "removed": false
        },
        {
          "address": "0x069a6c16bb614ca8b3eab3c3ee4e5d79e4caa86e",
          "topics": [
            "0xddf252ad1be2c89b69c2b068fc378daa952ba7f163c4a11628f55a4df523b3ef",
            "0x000000000000000000000000103e10e28229fcd87d2714f3e6016450b3c57c7c",
            "0x0000000000000000000000002222222222222222222222222222222222222222"
          ],
          "data": "0x0000000000000000000000000000000000000000000000000d2f13f7789f0000",
          "blockHash": "0x818b72340572150335eec07dd50c40eedc29aa03666024a01b4161148f38be9b",
          "blockNumber": "0x84872d",
          "transactionHash": "0x189056c504736469b246193f45e77d3d191f6c9224066559e854e9cdcd64e37f",
          "transactionIndex": "0x140",
          "logIndex": "0x1c0",
          "removed": false
        },
        {
          "address": "0xc8cb365a66fb128a1c5fe756afb918b346125a33",
          "topics": [
            "0xf4a146ba33ec3f087a3b00c141393c10d8afb4be89df16803e465b231fee5c40",
            "0x0000000000000000000000000000000000000000000000000000000000000001"
          ],
          "data": "0x0000000000000000000000000000000000000000000000000000000000000002",
          "blockHash": "0x818b72340572150335eec07dd50c40eedc29aa03666024a01b4161148f38be9b",
          "blockNumber": "0x84872d",
          "transactionHash": "0x189056c504736469b246193f45e77d3d191f6c9224066559e854e9cdcd64e37f",
          "transactionIndex": "0x140",
          "logIndex": "0x1c1",
          "removed": false
        }
      ],
      "logsBloom": "0x04000000000100000000000000000000000000000000000000000000400200000000000000800000000000000000000000080200000000000000000020040000000004000000000000000008000000000004000000040000002000400000000000000000000080000000000000010000000000000000000000004210010200800000000000040020000001000000010000000000000000000000000000000000240000000000000000000100000000000000100000000000000000800000000000000002004000000000002000000000000000001000000000000000000040000000000000010000000200000010000000000800008000000000000000000000",
      "type": "0x2",
      "transactionHash": "0x189056c504736469b246193f45e77d3d191f6c9224066559e854e9cdcd64e37f",
      "transactionIndex": "0x140",
      "blockHash": "0x818b72340572150335eec07dd50c40eedc29aa03666024a01b4161148f38be9b",
      "blockNumber": "0x84872d",
      "gasUsed": "0xde362",
      "effectiveGasPrice": "0x1fd8dcc0",
      "from": "0x7e718896781c0727e01d4ab5991374667ccc4dd6",
      "to": "0xc8cb365a66fb128a1c5fe756afb918b346125a33",
      "contractAddress": null
    }
  ],
  "libraries": [],
  "pending": [],
  "returns": {},
  "timestamp": 1751570893,
  "chain": 11155111,
  "commit": "bc0be12"
}